:10000000020B2BBB010689828A83F0225002F72261
:10001000BBFE01F322C2D5EC30E709B2D5E4C39DA3
:10002000FDE49CFCEE30E715B2D5E4C39FFFE49EEF
:10003000FE12004BC3E49DFDE49CFC800312004BC8
:1000400030D507C3E49FFFE49EFE22BC000BBE0038
:1000500029EF8DF084FFADF022E4CCF875F008EFC5
:100060002FFFEE33FEEC33FCEE9DEC984005FCEEEA
:100070009DFE0FD5F0E9E4CEFD22EDF8F5F0EE841B
:1000800020D21CFEADF075F008EF2FFFED33FD40E0
:1000900007985006D5F0F222C398FD0FD5F0EA225A
:1000A0007FF47E0112013B1201B01201197F967E8E
:1000B0000012013B7F3B1201961201797F3D120134
:1000C000961201797F3F1201961201797F43120146
:1000D000961201797F451201961201797F4712012C
:1000E000961201797F0D1202477F0A1202477FD0D4
:1000F0007E0712013B80BDAD071202127FD01201B4
:10010000E2AF051201E21202127FD11201E21201E6
:100110005BD20012022102022FE4FD7F6B1201FB71
:100120007D077F191201FB1D7F1A1201FB7D187FCD
:100130001B1201FB7D017F1C0201FBE4FDFCC3EDF2
:100140009FEC9E5015E4FBFA0BBB00010AEB6479AF
:100150004A70F50DBD00010C80E422E4FFD291FE4F
:10016000EF25E0FFD2901201C9A291E4334207C209
:10017000901201C90EBE08E822AD07AC067B007ADA
:1001800000790A120800E4FE740A2EF8E6FF120253
:10019000470EBE06F322AC071200F7AB07EC04FFD4
:1001A0001200F7AD07EBFE7C00E42DFFEC3EFE22D3
:1001B000758921758DFD758BFD759850D2BCD28CDB
:1001C000D28ED2A9D2ACD2AF220000000000000033
:1001D000000000000000000000000000000000001F
:1001E0000022E4FEEF25E0FF9291D2901201C9C2F5
:1001F000901201C90EBE08EC02023BAC07120212BB
:100200007FD01201E2AF041201E2AF051201E20257
:10021000022FD291D2901201C9C2911201C9C2908B
:1002200022A2009291D2901201C9C2900201C9C2C9
:1002300091D2901201C9D2910201C9D2901201C982
:0F024000A291C2900201C98F993099FDC29922F3
:100800008B108A1189128C138D14C3E513648094A4
:1008100080500FC3E49514F514E49513F513742D6B
:100820008008AB10AA11A9127420120003AE13AFF6
:10083000147C277D10120015EF2430FFAB10051239
:10084000E51270020511F9AA11EF120003AE13AF01
:10085000147C277D101200158C138D14AE13AF1469
:100860007C037DE8120015EF2430FFAB100512E584
:100870001270020511F9AA11EF120003AE13AF14A2
:100880007C037DE81200158C138D14AE13AF147C1D
:10089000007D64120015EF2430FFAB100512E51245
:1008A00070020511F9AA11EF120003AE13AF147C08
:1008B000007D641200158C138D14AE13AF147C00F0
:1008C0007D0A120015EF2430FFAB100512E51270FF
:1008D000020511F9AA11EF120003AE13AF147C0048
:1008E0007D0A1200158C138D14E5142430FFAB1013
:0F08F0000512E51270020511F9AA11EF020003BB
:0C0B2B00787FE4F6D8FD7581200200A060
:00000001FF
