:100000000203488B108A1189128C138D14C3E513D7
:1000100064809480500FC3E49514F514E49513F5AF
:1000200013742D8008AB10AA11A9127420120102BA
:10003000AE13AF147C277D10120114EF2430FFABF8
:10004000100512E51270020511F9AA11EF12010252
:10005000AE13AF147C277D101201148C138D14AED7
:1000600013AF147C037DE8120114EF2430FFAB10B2
:100070000512E51270020511F9AA11EF120102AE84
:1000800013AF147C037DE81201148C138D14AE138E
:10009000AF147C007D64120114EF2430FFAB100517
:1000A00012E51270020511F9AA11EF120102AE1346
:1000B000AF147C007D641201148C138D14AE13AF49
:1000C000147C007D0A120114EF2430FFAB100512DE
:1000D000E51270020511F9AA11EF120102AE13AF79
:1000E000147C007D0A1201148C138D14E514243045
:1000F000FFAB100512E51270020511F9AA11EF020B
:100100000102BB010689828A83F0225002F722BBDA
:10011000FE01F322C2D5EC30E709B2D5E4C39DFD60
:10012000E49CFCEE30E715B2D5E4C39FFFE49EFEED
:1001300012014AC3E49DFDE49CFC800312014A3095
:10014000D507C3E49FFFE49EFE22BC000BBE00293E
:10015000EF8DF084FFADF022E4CCF875F008EF2FBE
:10016000FFEE33FEEC33FCEE9DEC984005FCEE9D7B
:10017000FE0FD5F0E9E4CEFD22EDF8F5F0EE842097
:10018000D21CFEADF075F008EF2FFFED33FD4007F8
:10019000985006D5F0F222C398FD0FD5F0EA227FE1
:1001A000F47E011202B01202EA12028E7F967E00E5
:1001B0001202B07F3B1202D01201F67F3D1202D034
:1001C0001201F67F3F1202D01201F67F431202D0D5
:1001D0001201F67F451202D01201F67F471202D0BB
:1001E0001201F67F0D12036C7F0A12036C7FD07E22
:1001F000071202B080BD7C007D401201147B007AA2
:1002000000790AAD07AC06120003E4FEEEC39406C3
:1002100074809480500C740A2EF8E6FF12036C0E62
:1002200080EA22E4FFD292FEEEC3940874809480A8
:100230005017EF25E0FFD29012031AA292E4334246
:1002400007C29012031A0E80DF22E4FEEEC3940868
:10025000748094805013EF25E0FF9292D2901203A5
:100260001AC29012031A0E80E3020360AD07120354
:100270002B7FD012024AAF0512024A12032B7FD104
:1002800012024A120223D20012033A020354E4FD7E
:100290007F6B1203037D077F191203031D7F1A1260
:1002A00003037D187F1B1203037D017F1C020303E0
:1002B000E4FDFCC3ED9FEC9E5015E4FBFA0BBB0084
:1002C000010AEB64794A70F50DBD00010C80E4224F
:1002D000AC0712026CAB07EC04FF12026CAD07EB2B
:1002E000FE7C00E42DFFEC3EFE22758921758DFD1C
:1002F000758BFD759850D2BCD28CD28ED2A9D2AC5F
:10030000D2AF22AC0712032B7FD012024AAF0412E5
:10031000024AAF0512024A02035400000000000026
:100320000000000000000000000022D292D29012D3
:10033000031AC29212031AC29022A2009292D29081
:1003400012031AC29002031A787FE4F6D8FD758171
:100350002002019FC292D29012031AD29202031A73
:10036000D29012031AA292C29002031A8F99309966
:04037000FDC299220F
:00000001FF
