:10000000020196BB010689828A83E0225002E72220
:0C001000BBFE02E32289828A83E4932273
:1000230001EC0D0AC3FCC1EED2D1D6B4D0D03A2034
:10003300494FBFDA2D50315E30B7B4D7AA2E0D0A1F
:10004300000D0AC3FCC1EED2D1D6B4D0D03A2049B8
:100053004FBFDA2D50315E31B7B4D7AA2E0D0A0047
:100063000D0A202D2D2D5265732D2D2D002000FD01
:100073008F99D200228B088A09890AAB08AA09A999
:100083000A11036011050AE50A7002050914F91142
:1000930003FF117080E522C290C291759850758E4E
:1000A30014438E0175D7E875D6FFD2ACD2AF7B016E
:1000B3007A007900801D3098FDAE99BE310AB29066
:1000C3007BFF7A007925800BBE320CB2917BFF7ADD
:1000D300007944117880DF7BFF7A00796311787BA4
:1000E300017A007900117880CD309802C298309956
:1000F30002C299C20032C100609600000D0A2D2D84
:100103002D2D2D2D6D61696E206D656E752D2D2D37
:100113002D2D2D2D2D2D2D2D2D2D2D2D0D0A202069
:10012300202020696E70757420313A2020B7B4D72F
:10013300AA20696F2050315E300D0A202020202034
:10014300696E70757420323A2020B7B4D7AA20693B
:100153006F2050315E310D0A20202020206F7468FB
:10016300657220203A2020D6D8D0C2CAE4C8EB0D4D
:100173000A2D2D2D2D2D2D656E64206D656E752D2B
:100183002D2D2D2D2D2D2D2D2D2D2D2D2D2D2D0DBC
:100193000A0000787FE4F6D8FD7581200201DD02B4
:1001A300009AE493A3F8E493A34003F68001F208D2
:1001B300DFF48029E493A3F85407240CC8C333C4A1
:1001C300540F4420C8834004F456800146F6DFE40C
:1001D300800B01020408102040809000F9E47E01A6
:1001E3009360BCA3FF543F30E509541FFEE493A37F
:1001F30060010ECF54C025E060A840B8E493A3FA91
:10020300E493A3F8E493A3C8C582C8CAC583CAF01C
:0F021300A3C8C582C8CAC583CADFE9DEE780BEBB
:00000001FF
