:100000000200F4BB010689828A83E0225002E722C3
:0C001000BBFE02E32289828A83E4932273
:1000230001DC535443313546324B363053320D0ADB
:1000330055617274205465737420210D0AC6F1D280
:10004300F2BBF6B8A3B1DCC7F7D6AE0D0A000000C9
:100053007F2B7E067DCBDDFEDEFCDFFA22E4F5940A
:10006300F593F592F591F596F595F5B2F5B1F5B4ED
:10007300F5B3F5CAF5C9F5CCF5CBF5E2F5E1E5A2A3
:10008300543FF5A27598DA75D7E075D6FE758E14D0
:10009300438E01D2ACD2AF11517BFF7A0079251187
:1000A300A8115180F28B088A09890AAB08AA09A909
:1000B3000A11036011050AE50A7002050914F91112
:1000C30003FF11CA80E5222000FDEF30D004D29B4C
:1000D3008002C29BD200F59922C0D0309809C29801
:1000E300859980A29A92A2309904C299C200D0D075
:0D00F30032787FE4F6D8FD758120020060B0
:00000001FF
