:100000000205EFC1000091FF900022ECF022900069
:100010001FE0FBA3E0FAA3E0F9225108C290213BC4
:10002300615490001F11D0A3ECF0A3EDF0C3EC6476
:10003300809480501511A2C3E49FFFE49E90002298
:10004300F0A3EFF0110E742D8004110E742091EDC6
:1000530011A27C007D64118A7C007D641106FEA3DD
:10006300EDF0FF7C007D0A118A7C007D0A1106A356
:10007300EDF02430FF90001FE0FBA3E475F001B125
:1000830035A9F0FAEF81ED91FFEF2430FF90001FC7
:10009300E0FBA3E475F001B135A9F0FAEF91ED901F
:1000A3000022E0FEA3E0FF2290002411D090002460
:1000B3001111B16145F06014900024A3E475F002BE
:1000C300B14BA9F0FAB161FF714C80E122EBF0A3CF
:1000D300EAF0A3E9F0227F1E11ED90000BEFF07F11
:1000E3001D31C390000B511780BEAC0731417FD047
:1000F300310831417FD1310C31CAAE07D201510FE2
:10010300312DAF0622310CAF04AE07E4FDEE25E03E
:10011300FE31375101B408F5011AAC05AB07314183
:100123007FD0310CAF0331088000C291D290313BB4
:10013300D29180049291D290007F0BDFFE22D29164
:10014300D290313BC291313BC290227D807F3E31C0
:100153001D7D077F15311D7D1E7F16311DE4FD7F3B
:1001630017311DE4FD7F3E80B17F2011ED90000D1E
:10017300EFF07F1F31C390000D511701AB7F2211A8
:10018300ED90000FEFF07F2131C390000F51170165
:10019300AB7FF47E0131E1759850758E14438E0167
:1001A30075CCE075CDFED2ACD2AF314E7F327E003E
:1001B30031E111D9316C31807F107E2731E180F23A
:1001C30011EDA3EFF0FE22E4FED291FDEE25E0FE59
:1001D3005108E4334EFE5101B408F1AF0622E4FDA9
:1001E300FCC3ED9FEC9E5015E4FBFA0BBB00010A28
:1001F300EB64794A70F50DBD00010C80E422C290D6
:10020300313B0DED22D290313BA29122A201313735
:10021300C290213BE07C002400FFEC3E900005F0FF
:10022300A3EFF0900005E0FCA3E0FDEC91067B3327
:100233007A33798378417164913F900005EEF0A39E
:10024300EFF09000027401F0A37400F0A37405F0C2
:100253007B017A0079022290001911D0AE07900039
:1002630018EDF0E490001EF0ED5401900018F0EE4C
:10027300540FFE90001C74FFF5F0B14B45F0602164
:10028300AF06900018E0FDA3111190001EE0F58267
:1002930075830091C0FB51A590001EE004F00E8011
:1002A300D222ED5401FDEF540FFFED6004EF444003
:1002B300FFEF4480FFE4FD7116AF0380007138D275
:1002C300A0C2A1008F8000D2A20000C2A2227D01A1
:1002D3007F3871167F0871167F0171167F067116BC
:1002E3007F0C71167B78E41DFF71317F0151A57B73
:1002F300797D01E4FF712A7F0151A57B7AE4FD7FBB
:100303000971317F0A51A57B547D017F09712A7FD1
:100313000A808FED60027138C2A0C2A1008F8000F5
:10032300D2A20000C2A22251A57B3A7D012251A58F
:100333007B3AE4FD227580FFC2A0D2A100D2A200C5
:1003430000E58020E7FBC2A2222000FD8F99D200A6
:1003530022309802C298309902C299C20032020434
:10036300B5EC5D046005E8590470030204AB1204A4
:1003730076580460F6EC4860F2EC7004FDFEFF2250
:10038300C860DB2481C85009C39860025006020488
:10039300B29850CAF582E9294B4A7005AB82020430
:1003A300A175F0007C1A7880C3EF9BEE9AED99401B
:1003B3000DC3EF9BFFEE9AFEED99FDE842F0DC23BF
:1003C300ACF0D0E0FFD0E0FED0E0FDAB8220E71040
:1003D3001BEB60BAEC2CFCEF33FFEE33FEED33FD89
:1003E30002048DE803F830E705C0F075F000EF2F45
:1003F300FFEE33FEED33FD40B830E7C280AA75F05F
:1004030020800E75F010800575F0087D007E007F5A
:10041300003392D530D50312058CEC334010EF3303
:10042300FFEE33FEED33FDEC33FCD5F0ED22E5F0CA
:10043300247EA2D513CC92E7CDCEFF22EDD2E7CD19
:1004430033EC3392D524814006E4FFFEFDFC22FC0D
:10045300E4CFCECDCC24E0501174FF80EDC3CC1398
:10046300CCCD13CDCE13CECF13CF0470F030D5DE69
:1004730002058CE9D2E7C933E833F892D5EDD2E728
:10048300CD33EC33FC5002B2D522EC30E7100FBF72
:10049300000C0EBE00080DBD00040BEB6014A2D5CA
:1004A300EB13FCED92E7FD2274FFFCFDFEFF22E45B
:1004B30080F8A2D574FF13FC7D80E480EFBB010CB0
:1004C300E58229F582E5833AF583E0225006E925A2
:1004D30082F8E622BBFE06E92582F8E222E58229BC
:1004E300F582E5833AF583E49322BB010689828A88
:1004F30083F0225002F722BBFE01F322C2D5EC3077
:10050300E709B2D5E4C39DFDE49CFCEE30E715B2E8
:10051300D5E4C39FFFE49EFE12059AC3E49DFDE468
:100523009CFC800312059A30D507C3E49FFFE49E29
:10053300FE22C5F0F8A3E028F0C5F0F8E5821582A5
:1005430070021583E038F022A3F8E0C5F025F0F03F
:10055300E582158270021583E0C838F0E822BB01FA
:100563000A89828A83E0F5F0A3E022500687F00926
:10057300E71922BBFE07E3F5F009E3192289828A12
:1005830083E493F5F074019322C3E49FFFE49EFE9A
:10059300E49DFDE49CFC22BC000BBE0029EF8DF022
:1005A30084FFADF022E4CCF875F008EF2FFFEE33B3
:1005B300FEEC33FCEE9DEC984005FCEE9DFE0FD562
:1005C300F0E9E4CEFD22EDF8F5F0EE8420D21CFE36
:1005D300ADF075F008EF2FFFED33FD40079850069F
:1005E300D5F0F222C398FD0FD5F0EA22787FE4F626
:1005F300D8FD758120020636020194E493A3F8E442
:1006030093A34003F68001F208DFF48029E493A367
:10061300F85407240CC8C333C4540F4420C8834080
:1006230004F456800146F6DFE4800B01020408104F
:10063300204080900003E47E019360BCA3FF543FFD
:1006430030E509541FFEE493A360010ECF54C02587
:10065300E060A840B8E493A3FAE493A3F8E493A377
:10066300C8C582C8CAC583CAF0A3C8C582C8CAC5DB
:0806730083CADFE9DEE780BE67
:00000001FF
