:03000000020BAA46
:0C0BAA00787FE4F6D8FD75812002090375
:100800008B108A1189128C138D14C3E513648094A4
:10081000805012C3E49514F514E49513F513742D68
:100820001209C4800BAB10AA11A91274201209C4BA
:10083000AE13AF147C277D101209D6EF2430FFAB26
:10084000100512E51270020511F9AA11EF1209C480
:10085000AE13AF147C277D101209D68C138D14AE05
:1008600013AF147C037DE81209D6EF2430FFAB10E0
:100870000512E51270020511F9AA11EF1209C4AEB2
:1008800013AF147C037DE81209D68C138D14AE13BC
:10089000AF147C007D641209D6EF2430FFAB100545
:1008A00012E51270020511F9AA11EF1209C4AE1374
:1008B000AF147C007D641209D68C138D14AE13AF77
:1008C000147C007D0A1209D6EF2430FFAB1005120C
:1008D000E51270020511F9AA11EF1209C4AE13AFA7
:1008E000147C007D0A1209D68C138D14E514243073
:1008F000FFAB100512E51270020511F9AA11EF12F3
:0309000009C42205
:100B5900758921758DFD758BFD759850D2BCD28C28
:090B6900D28ED2A9D2ACD2AF2287
:080BB6008F993099FDC29922CC
:100AAC00E4FDFCC3ED9FEC9E5015E4FBFA0BBB0080
:0F0ABC00010AEB64794A70F50DBD00010C80E46E
:010ACB002208
:050BBE00007F0BDFFECB
:010BC300220F
:0F0B7200D291D290120BBEC291120BBEC2902232
:0D0B9000C291D290120BBED291120BBE2268
:0F0B8100A2009291D290120BBEC290120BBE2214
:0D0B9D00D290120BBEA291C290120BBE228C
:020B0900AE0735
:100B0B00E4FDEE25E0FE9291D290120BBEC2901244
:090B1B000BBE0DBD08EC120B9D90
:010B240022AE
:100ACC00E4FED291FDEE25E0FED290120BBEA29177
:0F0ADC00E4334206C290120BBE0DBD08E8AF0610
:010AEB0022E8
:100B2500AC05AB07120B727FD0120B09AF03120B8A
:0A0B350009AF04120B09120B902205
:020A6100AC07E0
:100A6300120B727FD0120B09AF04120B09120B7217
:100A73007FD1120B09120ACCAE07D200120B8112DE
:040A83000B90AF061F
:010A8700224C
:100A8800E4FD7F6B120B257D077F19120B257D0670
:100A98007F1A120B257D187F1B120B257D017F1CE9
:040AA800120B2522E6
:020B3F00AB0702
:100B4100120A61AA07EB04FF120A61AD07EAFE7CF3
:070B510000E42DFFEC3EFE65
:010B5800227A
:040AEC00AD07AC06A0
:100AF0007B007A00790A120800E4FE740A2EF8E6F8
:080B0000FF120BB60EBE06F356
:010B080022CA
:100903007FF47E01120AAC120B59120A887F967E7D
:1009130000120AAC7F41120BB67F20120BB67F5830
:10092300120BB67F3A120BB60F120B3F120AEC7F73
:1009330020120BB67F59120BB67F3A120BB67F3DCE
:10094300120B3F120AEC7F20120BB67F5A120BB622
:100953007F3A120BB67F3F120B3F120AEC7F201235
:100963000BB67F47120BB67F20120BB67F58120BC4
:10097300B67F3A120BB67F43120B3F120AEC7F206D
:10098300120BB67F59120BB67F3A120BB67F451284
:100993000B3F120AEC7F20120BB67F5A120BB67F65
:1009A3003A120BB67F47120B3F120AEC7F0D120B64
:1009B300B67F0A120BB67FD07E07120AAC02091764
:0109C3002211
:1009C400BB010689828A83F0225002F722BBFE0112
:0209D400F3220C
:1009D600C2D5EC30E709B2D5E4C39DFDE49CFCEE3C
:1009E60030E715B2D5E4C39FFFE49EFE120A0CC39E
:1009F600E49DFDE49CFC8003120A0C30D507C3E499
:060A06009FFFE49EFE22AA
:100A0C00BC000BBE0029EF8DF084FFADF022E4CCCE
:100A1C00F875F008EF2FFFEE33FEEC33FCEE9DEC97
:100A2C00984005FCEE9DFE0FD5F0E9E4CEFD22EDDD
:100A3C00F8F5F0EE8420D21CFEADF075F008EF2F27
:100A4C00FFED33FD4007985006D5F0F222C398FD18
:050A5C000FD5F0EA22B5
:00000001FF
