:1000000002090F7F051203411201D67F011202E996
:100010007F021202E97BFF7A0379677D017F01127B
:10002000024212006D8F22E522F460217BFF7A03E9
:1000300079717D017F0112024212017E12006DBFB3
:10004000FF0B12035112006DBFFFF1D2003000D23E
:10005000E52170057F021202E912031A12027605E9
:1000600021E521B40603E4F521C20080B578087CBF
:10007000007D007BFF7A0379817E007F101208D01B
:1000800078187C007D007BFF7A0379917E007F04E5
:100090001208D075B0C3E5B064C3602D7F051203AC
:1000A00041E5B064C3601FE4FF74182FF8E6F5B0B3
:1000B000E4FE74082EF8E6B5B003AF06220EBE10BB
:1000C000F10FBF04E4227FFF227FFF22AD07C29021
:1000D000D2917580FF0000000000000000000000C9
:1000E000000000000000000000D29212032FC29214
:1000F000C291D2908D80000000000000000000003E
:1001000000000000000000000000D292000000008B
:1001100000000000000000000000000000000000DF
:10012000C2927580FF22AD07C290D2917580FF0008
:1001300000000000000000000000000000000000BF
:10014000000000D29212032FC292C2918D80000053
:10015000000000000000000000000000000000009F
:100160000000D2920000000000000000000000002B
:100170000000000000000000C2927580FF22E5220E
:10018000B40A00504D90018CF82828730201AA028D
:1001900001AE0201B20201B60201BA0201BE0201C1
:1001A000C20201C60201CA0201CE75293022752998
:1001B0003122752932227529332275293422752975
:1001C0003522752936227529372275293822752955
:1001D000392275293F22C292C290C2917F641203D4
:1001E000417F3012020E7F0A1203417F3012020E4D
:1001F0007F0A1203417F3812020E7F061203417FED
:10020000011201267F061201267F0C020126C291EF
:100210008F800000000000000000000000000000CF
:10022000000000000000D29200000000000000006A
:10023000000000000000000000000000C292758075
:10024000FF228F088D098B0A8A0B890CAB0AAA0B37
:10025000A90C1208F6FB601DAD09AF081202B30528
:1002600009E509D39414500D7401250CF50CE435FF
:100270000BF50B80D7227BFF7A0379567D017F0136
:100280001202427B007A0079237D017F0212024232
:100290007D077F02020302AC05AB07BB0108EC142B
:1002A0004480FF120126BB0209EC243F4480FF1268
:1002B000012622AE07AA03EE6014D39402500FED7C
:1002C000600C94105008120297AF021200CC220169
:1002D0002200460000303035343033062320202001
:1002E000202020012100C10000EF6015D3940250AE
:1002F000107D01120297E4FC7F201200CC0CBC1090
:10030000F722EF6014D39402500FED600C9410505C
:10031000081202977F201200CC22E529643F600872
:1003200074232521F8A62922E5216002152122E463
:10033000FFFE30870B0FBF00010EBE13F5BF88F222
:10034000227D527C03ED1D70011C144C70F7DFF10F
:10035000227F0ADFFE22456E74657220706173731E
:10036000776F72643A20004675636B20427567218F
:1003700000456E7465722070617373776F72643AB2
:1003800000FAF97BBBF6F577B7EEED6FAFDEDD5F18
:050390009FFBF7EFDF09
:10080000E709F608DFFA8046E709F208DFFA803EDA
:1008100088828C83E709F0A3DFFA8032E309F608C7
:10082000DFFA8078E309F208DFFA807088828C832F
:10083000E309F0A3DFFA806489828A83E0A3F608E3
:10084000DFFA805889828A83E0A3F208DFFA804CBD
:1008500080D280FA80C680D4806980F28033801094
:1008600080A680EA809A80A880DA80E280CA8033FD
:1008700089828A83ECFAE493A3C8C582C8CCC58375
:10088000CCF0A3C8C582C8CCC583CCDFE9DEE78045
:100890000D89828A83E493A3F608DFF9ECFAA9F0C4
:1008A000EDFB2289828A83ECFAE0A3C8C582C8CC1A
:1008B000C583CCF0A3C8C582C8CCC583CCDFEADE33
:1008C000E880DB89828A83E493A3F208DFF980CC95
:1008D00088F0EF60010E4E60C388F0ED2402B4048E
:1008E0000050B9F582EB2402B4040050AF23234535
:1008F000822390085073BB010689828A83E02250CC
:1009000002E722BBFE02E32289828A83E4932278F3
:100910007FE4F6D8FD758129020956020003E493AD
:10092000A3F8E493A34003F68001F208DFF48029E2
:10093000E493A3F85407240CC8C333C4540F4420D1
:10094000C8834004F456800146F6DFE4800B0102C0
:100950000408102040809002CFE47E019360BCA385
:10096000FF543F30E509541FFEE493A360010ECF0E
:1009700054C025E060A840B8E493A3FAE493A3F838
:10098000E493A3C8C582C8CAC583CAF0A3C8C582F8
:0B099000C8CAC583CADFE9DEE780BEED
:00000001FF
