:020000040000FA
:1000000002090FAD07C290D2917580FF0000000079
:1000100000000000000000000000000000000000E0
:10002000D29212024FC292C291D2908D80000000F3
:1000300000000000000000000000000000000000C0
:1000400000D292000000000000000000000000004C
:1000500000000000000000C2927580FF2278097C39
:10006000007D007BFF7A0279837E007F101208D02A
:1000700078197C007D007BFF7A0279937E007F04F3
:100080001208D075B0C3E5B064C360267F021202C7
:1000900061E5B064C36018E4FF74192FF8E6F5B0A9
:1000A000E4FE74092EF8E67FFFB5B002AF06227FAA
:1000B000FF227FFF22AD07C290D2917580FF000022
:1000C0000000000000000000000000000000000030
:1000D0000000D29212024FC292C2918D80000000A5
:1000E0000000000000000000000000000000000010
:1000F00000D292000000000000000000000000009C
:1001000000000000000000C2927580FF227F0512EF
:10011000026112015B7F011202367F021202367BFE
:10012000FF7A0279977D017F011201C7E4F5081279
:10013000005D8F1DE51DF460F3E51DB403EEE508D9
:1001400004FD7B007A00792A7F021201C70508E5C9
:1001500008C3940440D6E4F50880D1C292C290C28C
:10016000917F641202617F301201937F0A12026153
:100170007F301201937F0A1202617F381201937F50
:10018000061202617F011200B57F061200B57F0CD6
:100190000200B5C2918F8000000000000000000046
:1001A0000000000000000000000000D292000000EB
:1001B000000000000000000000000000000000003F
:1001C00000C2927580FF228F098D0A8B0B8A0C89E1
:1001D0000DAB0BAA0CA90D1208F6FB601DAD0AAF02
:1001E000091201FB050AE50AD39414500D74012588
:1001F0000DF50DE4350CF50C80D722AE07AA03EE01
:100200006017D394025012ED600FD39410500AAFD0
:100210000612021AAF0212000322AC05AB07BB01A3
:1002200008EC144480FF1200B5BB0209EC243F44E3
:1002300080FF1200B522EF6015D3940250107D01AB
:1002400012021AE4FC7F201200030CBC10F722E417
:10025000FFFE30870B0FBF00010EBE13F5BF88F203
:10026000227D527C03ED1D70011C144C70F7DFF1F0
:1002700022011D00061E000000000000007F0ADFB2
:10028000FE2222FAF97BBBF6F577B7EEED6FAFDE13
:10029000DD5F9FFBF7EFDF4675636B2042756721DB
:0102A000005D
:10080000E709F608DFFA8046E709F208DFFA803EDA
:1008100088828C83E709F0A3DFFA8032E309F608C7
:10082000DFFA8078E309F208DFFA807088828C832F
:10083000E309F0A3DFFA806489828A83E0A3F608E3
:10084000DFFA805889828A83E0A3F208DFFA804CBD
:1008500080D280FA80C680D4806980F28033801094
:1008600080A680EA809A80A880DA80E280CA8033FD
:1008700089828A83ECFAE493A3C8C582C8CCC58375
:10088000CCF0A3C8C582C8CCC583CCDFE9DEE78045
:100890000D89828A83E493A3F608DFF9ECFAA9F0C4
:1008A000EDFB2289828A83ECFAE0A3C8C582C8CC1A
:1008B000C583CCF0A3C8C582C8CCC583CCDFEADE33
:1008C000E880DB89828A83E493A3F208DFF980CC95
:1008D00088F0EF60010E4E60C388F0ED2402B4048E
:1008E0000050B9F582EB2402B4040050AF23234535
:1008F000822390085073BB010689828A83E02250CC
:1009000002E722BBFE02E32289828A83E4932278F3
:100910007FE4F6D8FD75812302095602010DE493A8
:10092000A3F8E493A34003F68001F208DFF48029E2
:10093000E493A3F85407240CC8C333C4540F4420D1
:10094000C8834004F456800146F6DFE4800B0102C0
:10095000040810204080900271E47E019360BCA3E3
:10096000FF543F30E509541FFEE493A360010ECF0E
:1009700054C025E060A840B8E493A3FAE493A3F838
:10098000E493A3C8C582C8CAC583CAF0A3C8C582F8
:0B099000C8CAC583CADFE9DEE780BEED
:00000001FF
