:0A00000002018FE50975F00A842261
:10000B00214A010A00010800010900010B00003F11
:10001B00065B4F666D7D077F6F777C395E7971006C
:10002B0040C0F9A4B0999282F880908883C6A186CB
:10003B008EFFBF1FEF600E750C02750DEFD50DFD1A
:10004B00D50CFA80EE22C290310E600590002C8008
:10005B0010E50AC3940A400590003C800390003DD4
:10006B00E493F5807F01113ED2903115C291310E90
:10007B00AEF0EE701A310E600590002C800EE50A82
:10008B00C3940A40048F80800D90003DE48004EE01
:10009B0090002C93F5807F01113E75807F7F0111BD
:1000AB003ED2913115C2921103FE600590002C8057
:1000BB000FE50AC3940A40048F80800790003DE44B
:1000CB0093F5807F01113ED2923115C2931103AE8D
:1000DB00F0EE701A1103600590002C800EE50AC338
:1000EB00940A40048F80800D90003DE48004EE90D4
:1000FB00002C93F5807F01113ED29390003CE4934A
:10010B00F58022E50B75F00A842290003CE493FF06
:10011B00F580227F05113ED2AFD2A93136D2A0D2C3
:10012B0090D291D292D293115180FC538E7F5389EE
:10013B00F0438901758AB0758C3CC28DD28C22C07C
:10014B00E0C0D0758AB0758C3C050AE50AC39414DF
:10015B004026750A000508B2A0E508943C401975C5
:10016B0008000509E509943C400E750900050BE5EF
:10017B000B94184003750B00E50AB40802D2A0D00B
:10018B00D0D0E032787FE4F6D8FD75810D0201D630
:10019B0002011EE493A3F8E493A34003F68001F25B
:1001AB0008DFF48029E493A3F85407240CC8C33365
:1001BB00C4540F4420C8834004F456800146F6DF34
:1001CB00E4800B010204081020408090000DE47EB7
:1001DB00019360BCA3FF543F30E509541FFEE49329
:1001EB00A360010ECF54C025E060A840B8E493A3F0
:1001FB00FAE493A3F8E493A3C8C582C8CAC583CA1B
:10020B00F0A3C8C582C8CAC583CADFE9DEE780BED2
:00000001FF
